:100000000C9463000C948B000C948B000C948B006C
:100010000C948B000C948B000C948B000C948B0034
:100020000C948B000C948B000C948B000C948B0024
:100030000C948B000C948B000C948B000C948B0014
:100040000C9429030C948B000C9499030C94730367
:100050000C948B000C948B000C948B000C948B00F4
:100060000C948B000C948B000000000024002700EF
:100070002A0000000000250028002B0000000000DE
:1000800023002600290004040404040404040202DA
:100090000202020203030303030301020408102007
:1000A0004080010204081020010204081020000012
:1000B0000008000201000003040700000000000027
:1000C0000000CB03B70511241FBECFEFD8E0DEBF81
:1000D000CDBF11E0A0E0B1E0EEE3FEE002C005908C
:1000E0000D92AE32B107D9F721E0AEE2B1E001C026
:1000F0001D92AE3FB207E1F710E0C2E6D0E004C0C7
:100100002197FE010E94DA05C136D107C9F70E9486
:100110003C040C9412070C94000008950895833059
:1001200081F028F4813099F08230A1F00895873071
:10013000A9F08830B9F08430D1F4809180008F7DAF
:1001400003C0809180008F7780938000089584B5EC
:100150008F7702C084B58F7D84BD08958091B000F3
:100160008F7703C08091B0008F7D8093B000089599
:10017000CF93DF93282F30E0F901E255FF4F8491B0
:10018000F901E656FF4FD491F901EA57FF4FC491A8
:10019000CC2391F081110E948F00EC2FF0E0EE0F44
:1001A000FF1FE458FF4FA591B491EC91ED2381E03E
:1001B00090E021F480E002C080E090E0DF91CF91F8
:1001C00008951F93CF93DF93282F30E0F901E25574
:1001D000FF4F8491F901E656FF4FD491F901EA5798
:1001E000FF4FC491CC23C9F0162F81110E948F00BC
:1001F000EC2FF0E0EE0FFF1FEE58FF4FA591B491EA
:100200008FB7F894111105C09C91ED2FE095E9236B
:1002100002C0EC91ED2BEC938FBFDF91CF911F913A
:100220000895CF93DF9390E0FC01E656FF4F2491B1
:10023000FC01EA57FF4F8491882361F190E0880F19
:10024000991FFC01E859FF4FC591D491FC01EE586C
:10025000FF4FA591B491611109C09FB7F8948881AF
:10026000209582238883EC912E230BC0623061F4A9
:100270009FB7F8943881822F809583238883EC91EF
:100280002E2B2C939FBF06C08FB7F894E8812E2B9E
:1002900028838FBFDF91CF910895CF92DF92EF92A5
:1002A000FF920F931F93CF93DF936C017A018B0121
:1002B000C0E0D0E0CE15DF0589F0D8016D918D0149
:1002C000D601ED91FC910190F081E02DC6010995D8
:1002D000892B11F47E0102C02196ECCFC701DF917A
:1002E000CF911F910F91FF90EF90DF90CF900895E5
:1002F000089580E090E00895FC01538D448D252FF2
:1003000030E0842F90E0821B930B541710F0CF96AF
:10031000089501970895FC01918D828D981761F0E1
:10032000828DDF01A80FB11D5D968C91928D9F5F2C
:100330009F73928F90E008958FEF9FEF0895FC01D7
:10034000918D828D981731F0828DE80FF11D858D8A
:1003500090E008958FEF9FEF0895FC01918D228D1D
:10036000892F90E0805C9F4F821B91098F739927A2
:1003700008958DE391E00E94AD0121E0892B09F4FD
:1003800020E0822F0895FC01848DDF01A80FB11DAC
:10039000A35ABF4F2C91848D90E001968F739927BB
:1003A000848FA689B7892C93A089B1898C918064A8
:1003B0008C93938D848D981306C00288F389E02D69
:1003C00080818F7D80830895EF92FF920F931F931A
:1003D000CF93DF93EC0181E0888F9B8D8C8D9813F8
:1003E00005C0E889F989808185FD24C0F62E0B8D32
:1003F00010E00F5F1F4F0F731127E02E8C8DE81256
:100400000CC00FB607FCFACFE889F989808185FF17
:10041000F5CFCE010E94C301F1CF8B8DFE01E80F15
:10042000F11DE35AFF4FF0820B8FEA89FB8980812F
:10043000806207C0EE89FF896083E889F98980813D
:100440008064808381E090E0DF91CF911F910F91D4
:10045000FF90EF900895CF93DF93EC01888D882370
:10046000C9F0EA89FB89808185FD05C0A889B98921
:100470008C9186FD0FC00FB607FCF5CF808185FFFC
:10048000F2CFA889B9898C9185FFEDCFCE010E946A
:10049000C301E7CFDF91CF91089580E090E0892BF1
:1004A00029F00E94B90181110C9400000895FF9277
:1004B0000F931F93CF93DF93F82E062FC7E0D0E062
:1004C00010E061E0802F0E94E1008F2D0E94B800B3
:1004D0000C2E01C0880F0A94EAF7182B60E0802FD9
:1004E0000E94E100219768F7812FDF91CF911F9142
:1004F0000F91FF900895DF92EF92FF920F931F9359
:10050000CF93DF93EC018B810E94B800892BD9F740
:100510006A818B810E945702082F6A818B810E9419
:100520005702182F6A818B810E945702D82EE12C26
:10053000F12C2C8130E0E216F30660F461E08A8150
:100540000E94E10060E08A810E94E1002FEFE21A40
:10055000F20AEFCF812F90E0A0E0B0E0BA2FA92FF0
:10056000982F8827A02BAC01BD014D29802F880F23
:10057000880B90E0A0E0B0E0B82FAA279927882741
:100580008A019B01082B192B2A2B3B2BC901B8018F
:10059000DF91CF911F910F91FF90EF90DF90089521
:1005A000009769F0FC0101900020E9F73197AF0155
:1005B000481B590BBC018DE391E00C944D0180E088
:1005C00090E008958F929F92AF92BF920F931F93E6
:1005D000CF93DF93CDB7DEB7A1970FB6F894DEBF08
:1005E0000FBECDBF19A2423008F44AE08E010F5D64
:1005F0001F4F842E912CA12CB12CA50194010E9497
:10060000B805E62FB901CA0101501109EA3014F406
:10061000E05D01C0E95CD801EC93232B242B252B52
:1006200061F7C8010E94D002A1960FB6F894DEBF10
:100630000FBECDBFDF91CF911F910F91BF90AF90B3
:100640009F908F9008950E940D070C9475060C944E
:1006500075061F920F920FB60F9211242F933F939E
:100660008F939F93AF93BF938091390190913A01FB
:10067000A0913B01B0913C013091380123E0230F60
:100680002D3720F40196A11DB11D05C026E8230FCA
:100690000296A11DB11D20933801809339019093DA
:1006A0003A01A0933B01B0933C01809134019091B9
:1006B0003501A0913601B09137010196A11DB11D00
:1006C0008093340190933501A0933601B0933701A4
:1006D000BF91AF919F918F913F912F910F900FBE3E
:1006E0000F901F9018951F920F920FB60F92112422
:1006F0002F933F934F935F936F937F938F939F932A
:10070000AF93BF93EF93FF938DE391E00E94C301FA
:10071000FF91EF91BF91AF919F918F917F916F91D9
:100720005F914F913F912F910F900FBE0F901F90AF
:1007300018951F920F920FB60F9211242F938F933B
:100740009F93EF93FF93E0914D01F0914E018081D3
:10075000E0915301F091540182FD12C0908180918B
:1007600056018F5F8F7320915701821751F0E091EE
:100770005601F0E0E35CFE4F958F8093560101C077
:100780008081FF91EF919F918F912F910F900FBEDC
:100790000F901F901895CF93DF93EDE3F1E0138254
:1007A000128288EE93E0A0E0B0E084839583A68374
:1007B000B7838AE091E09183808385EC90E0958710
:1007C000848784EC90E09787868780EC90E0918B1B
:1007D000808B81EC90E0938B828B82EC90E0958B08
:1007E000848B86EC90E0978B868B118E128E138E05
:1007F000148ECAEDD1E08CE191E0998388831D824B
:100800001E821F82188680E090E0A0E8BFE38987FF
:100810009A87AB87BC8782E08A8383E08B8361E021
:1008200082E00E94110160E08B810E94110181E051
:100830008C8360E08A810E94E100CE010E947B02ED
:1008400084E291E09983888381E090E0A0E0B0E0C9
:100850008E879F87A88BB98B1A8A1B8A1C8A1D8A50
:100860008E8B9F8BA88FB98F80E890E09C8F8B8FA9
:100870001D86DF91CF910895789484B5826084BD00
:1008800084B5816084BD85B5826085BD85B5816094
:1008900085BD80916E00816080936E001092810012
:1008A00080918100826080938100809181008160CD
:1008B000809381008091800081608093800080918E
:1008C000B10084608093B1008091B000816080931A
:1008D000B00080917A00846080937A0080917A00E1
:1008E000826080937A0080917A00816080937A00A0
:1008F00080917A00806880937A001092C10061E054
:100900008DE00E94110161E084E00E941101E091FC
:100910004D01F0914E0182E08083E0914901F09118
:100920004A011082E0914B01F0914C0180E18083FB
:1009300010925501E0915101F091520186E08083BF
:10094000E0914F01F0915001808180618083E091BE
:100950004F01F0915001808188608083E0914F01C8
:10096000F0915001808180688083E0914F01F09187
:10097000500180818F7D80838FB7F894C0903901BA
:10098000D0903A01E0903B01F0903C018FBF88E8A5
:10099000C80E83E1D81EE11CF11C8FEF9FEFDC0134
:1009A0008093EC019093ED01A093EE01B093EF01E1
:1009B0001092F0011092F1011092F2011092F301E5
:1009C0002FB7F8948091390190913A01A0913B01A1
:1009D000B0913C012FBF8C159D05AE05BF0580F57C
:1009E0008AED91E00E947B020091F0011091F101EB
:1009F0002091F2013091F3010617170728073907F4
:100A000048F46093F0017093F1018093F2019093A8
:100A1000F301D6CF0091EC011091ED012091EE0190
:100A20003091EF01601771078207930748F66093D2
:100A3000EC017093ED018093EE019093EF01C0CF34
:100A40004091F0015091F1016091F2017091F30138
:100A50008091EC019091ED01A091EE01B091EF0138
:100A6000481B590B6A0B7B0B4093E8015093E9013B
:100A70006093EA017093EB0180E0E82FF0E08A01D7
:100A80009B01082E04C036952795179507950A9463
:100A9000D2F7890122273327012B022B032B11F0D8
:100AA0008F5FEBCFF093F801E093F70181E0809343
:100AB000F9018AED91E00E947B026B017C01609359
:100AC00030017093310180933201909333018AEDAC
:100AD00091E00E947B020091EC011091ED012091C8
:100AE000EE013091EF01061717072807390738F490
:100AF000DC01CB01801B910BA20BB30B03C080E088
:100B000090E0DC012091F901222349F00090F701E7
:100B100004C0B695A795979587950A94D2F7AD012D
:100B200066277727452B462B472B21F08FEF9FEF2A
:100B3000A0E0B0E090932F0180932E014AE0C7011E
:100B4000B6010E94E20288E291E00E94D002609128
:100B50002E0170912F0180E090E04AE00E94E202B5
:100B60008BE291E00E94D0020E944D02A2CF089534
:100B7000A1E21A2EAA1BBB1BFD010DC0AA1FBB1FA1
:100B8000EE1FFF1FA217B307E407F50720F0A21B13
:100B9000B30BE40BF50B661F771F881F991F1A9480
:100BA00069F760957095809590959B01AC01BD01AA
:100BB000CF010895EE0FFF1F0590F491E02D0994E9
:100BC000CF93DF938230910510F482E090E0E091C2
:100BD000FC01F091FD0120E030E0C0E0D0E0309772
:100BE00011F14081518148175907C0F04817590742
:100BF00061F482819381209719F09B838A832BC0B3
:100C00009093FD018093FC0126C02115310519F058
:100C10004217530718F49A01BE01DF01EF01028069
:100C2000F381E02DDCCF2115310509F1281B390BAB
:100C30002430310590F412968D919C911397611593
:100C4000710521F0FB019383828304C09093FD0121
:100C50008093FC01FD01329644C0FD01E20FF31FB9
:100C600081939193225031092D933C933AC0209166
:100C7000FA013091FB01232B41F4209102013091C4
:100C800003013093FB012093FA0120910001309180
:100C900001012115310541F42DB73EB74091040102
:100CA00050910501241B350BE091FA01F091FB01F5
:100CB000E217F307A0F42E1B3F0B2817390778F033
:100CC000AC014E5F5F4F2417350748F04E0F5F1F92
:100CD0005093FB014093FA018193919302C0E0E0AD
:100CE000F0E0CF01DF91CF9108950F931F93CF9341
:100CF000DF93009709F48CC0FC01329713821282B3
:100D00000091FC011091FD010115110581F4208174
:100D10003181820F931F2091FA013091FB01281736
:100D2000390779F5F093FB01E093FA0171C0D8011E
:100D300040E050E0AE17BF0750F412962D913C9161
:100D40001397AD012115310509F1D901F3CF9D01AB
:100D5000DA013383228360817181860F971F8217A6
:100D6000930769F4EC0128813981260F371F2E5F24
:100D70003F4F318320838A819B8193838283452BDC
:100D800029F4F093FD01E093FC0142C01396FC931B
:100D9000EE931297ED01499159919E01240F351F51
:100DA000E217F30771F480819181840F951F0296F9
:100DB00011969C938E938281938113969C938E932C
:100DC0001297E0E0F0E0D80112968D919C91139774
:100DD000009719F0F8018C01F6CF8D919C91980144
:100DE0002E5F3F4F820F931F2091FA013091FB013C
:100DF0002817390769F4309729F41092FD011092F1
:100E0000FC0102C0138212821093FB010093FA01CD
:100E1000DF91CF911F910F91089581E090E0F894B8
:100E20000C94120710E0C2E6D0E004C0FE010E945C
:0E0E3000DA052196C336D107C9F7F894FFCF33
:100E3E000000FE01800000000000E4014D017C0175
:100E4E002B02AD018B019F01000000008D002703D6
:0E0E5E00000000008E0025032C20000A00007A
:00000001FF
