:100000000C9452010C9483010C9483010C94830191
:100010000C9483010C9483010C9483010C94830150
:100020000C9483010C9483010C9483010C94830140
:100030000C9483010C9483010C9483010C94830130
:100040000C9483010C9483010C9483010C94830120
:100050000C9483010C9483010C9483010C947D0413
:100060000C9483010C94F1040C94C7040C94830148
:100070000C9483010C9483010C9483010C948301F0
:100080000C9483010C9483010C9483010C948301E0
:100090000C9483010C9483010C9483010C948301D0
:1000A0000C9483010C9483010C9483010C948301C0
:1000B0000C9483010C9483010C9483010C948301B0
:1000C0000C9483010C9483010C9483010C948301A0
:1000D0000C9483010C9483010C9483010C94830190
:1000E0000C948301A201A501940198019E01DC01F9
:1000F000A901AD01B301B701BB01C101C501C9012E
:10010000DC01CF01D301D7010C9486010C94BB0113
:100110000C947B040C949E010C94AD010C94C101D1
:100120000C94C4020C9409030C94A1020C94D70102
:100130000C94D2020C94C5010C9427050C949401E4
:100140000C94A2010C9472020C94B0020C94CF0196
:100150000C9479040C94B3010C94C9010C945003D1
:100160000C94A9010C94B7010C94DC010C94980137
:100170000C94D3010C9485010C94A5010C94900669
:1001800000002100240027002A002D003000330049
:1001900001010000040107010A01000022002500FE
:1001A00028002B002E003100340002010000050160
:1001B00008010B01000020002300260029002C006C
:1001C0002F003200000100000301060109010505AE
:1001D0000505070508080808020202020A0A0808BD
:1001E00004040404010101010101010103030303EB
:1001F00003030303040707070C0C0C0C0C0C0C0C7A
:100200000202020206060606060606060B0B0B0B8A
:100210000B0B0B0B010210202008081020401020AF
:1002200040800201020108040201010204081020BA
:1002300040808040201008040201800402018040B8
:100240002010080402010804020101020408102021
:100250004080010204081020408000000A0B0209BF
:100260000C0D0E0807030401000000000000000050
:10027000000000000000000000000000000000007E
:10028000000000000000121110000000000000003B
:10029000000000000000000000000000000000005E
:1002A0002705900611241FBECFEFD1E2DEBFCDBFE0
:1002B00000E00CBF12E0A0E0B2E0EEEFFFE000E0F3
:1002C0000BBF02C007900D92AE32B107D9F722E002
:1002D000AEE2B2E001C01D92AE3FB207E1F711E01D
:1002E000C1E5D1E000E006C021970109802FFE01A1
:1002F0000E94B306C035D10780E00807A9F70E9425
:1003000098050C94ED070C9400000895089590E072
:10031000FC013197E231F10508F04EC08827EE5814
:10032000FF4F8F4F0C94B306809180008F7703C0EE
:10033000809180008F7D809380000895809180005F
:10034000877FF9CF84B58F7702C084B58F7D84BD58
:1003500008958091B0008F7703C08091B0008F7DA9
:100360008093B0000895809190008F7707C08091AE
:1003700090008F7D03C080919000877F80939000D4
:1003800008958091A0008F7707C08091A0008F7D95
:1003900003C08091A000877F8093A0000895809182
:1003A00020018F7707C0809120018F7D03C080914D
:1003B0002001877F809320010895CF93DF93282F1A
:1003C00030E0F901E65AFD4F8491F901EC5EFD4FF2
:1003D000D491F901E253FE4FC491CC2391F08111E5
:1003E0000E948701EC2FF0E0EE0FFF1FEC54FE4F50
:1003F000A591B491EC91ED2381E090E021F480E0AF
:1004000002C080E090E0DF91CF9108951F93CF93D9
:10041000DF93282F30E0F901E65AFD4F8491F9016E
:10042000EC5EFD4FD491F901E253FE4FC491CC2311
:10043000C9F0162F81110E948701EC2FF0E0EE0F1A
:10044000FF1FE656FE4FA591B4918FB7F894111196
:1004500005C09C91ED2FE095E92302C0EC91ED2BB6
:10046000EC938FBFDF91CF911F910895CF93DF93CE
:1004700090E0FC01EC5EFD4F2491FC01E253FE4F45
:100480008491882361F190E0880F991FFC01E05866
:10049000FE4FC591D491FC01E656FE4FA591B49153
:1004A000611109C09FB7F8948881209582238883C1
:1004B000EC912E230BC0623061F49FB7F894388121
:1004C000822F809583238883EC912E2B2C939FBFC2
:1004D00006C08FB7F894E8812E2B28838FBFDF9159
:1004E000CF910895CF92DF92EF92FF920F931F93D7
:1004F000CF93DF936C017A018B01C0E0D0E0CE1581
:10050000DF0589F0D8016D918D01D601ED91FC9147
:100510000190F081E02DC6011995892B11F47E011F
:1005200002C02196ECCFC701DF91CF911F910F91AF
:10053000FF90EF90DF90CF900895089580E090E0D5
:100540000895FC01538D448D252F30E0842F90E0D9
:10055000821B930B541710F0CF96089501970895BE
:10056000FC01918D828D981761F0828DDF01A80FBB
:10057000B11D5D968C91928D9F5F9F73928F90E0DD
:1005800008958FEF9FEF0895FC01918D828D98174C
:1005900031F0828DE80FF11D858D90E008958FEF89
:1005A0009FEF0895FC01918D228D892F90E0805C52
:1005B0009F4F821B91098F73992708958DE392E0D5
:1005C0000E94D20221E0892B09F420E0822F0895B5
:1005D000FC01848DDF01A80FB11DA35ABF4F2C91E0
:1005E000848D90E001968F739927848FA689B789AF
:1005F0002C93A089B1898C9180648C93938D848D88
:10060000981306C00288F389E02D80818F7D808356
:100610000895EF92FF920F931F93CF93DF93EC0116
:1006200081E0888F9B8D8C8D981305C0E889F989AE
:10063000808185FD24C0F62E0B8D10E00F5F1F4FCB
:100640000F731127E02E8C8DE8120CC00FB607FC3B
:10065000FACFE889F989808185FFF5CFCE010E9424
:10066000E802F1CF8B8DFE01E80FF11DE35AFF4F39
:10067000F0820B8FEA89FB898081806207C0EE8956
:10068000FF896083E889F98980818064808381E0C3
:1006900090E0DF91CF911F910F91FF90EF9008951F
:1006A000CF93DF93EC01888D8823C9F0EA89FB8919
:1006B000808185FD05C0A889B9898C9186FD0FC010
:1006C0000FB607FCF5CF808185FFF2CFA889B989E5
:1006D0008C9185FFEDCFCE010E94E802E7CFDF913C
:1006E000CF91089580E090E0892B21F00E94DE02F6
:1006F000811125C080E090E0892B41F080E090E0FE
:10070000892B21F00E94000081111CC080E090E044
:10071000892B41F080E090E0892B21F00E940000BD
:10072000811113C080E090E0892BA1F080E090E07F
:10073000892B81F00E94000081110AC008950E9457
:100740000000D8CF0E940000E1CF0E940000EACF55
:100750000C9400000895009769F0FC0101900020BE
:10076000E9F73197AF01481B590BBC018DE392E0CB
:100770000C94720280E090E008958F929F92AF9265
:10078000BF920F931F93CF93DF93CDB7DEB7A1979F
:100790000FB6F894DEBF0FBECDBF19A2423008F4E9
:1007A0004AE08E010F5D1F4F842E912CA12CB12C9D
:1007B000A50194010E949106E62FB901CA010150DA
:1007C0001109EA3014F4E05D01C0E95CD801EC9352
:1007D000232B242B252B61F7C8010E94AB03A19684
:1007E0000FB6F894DEBF0FBECDBFDF91CF911F9142
:1007F0000F91BF90AF909F908F900895FF920F93AD
:100800001F93CF93DF93F82E062FC7E0D0E010E0C0
:1008100061E0802F0E9406028F2D0E94DD010C2EC8
:1008200001C0880F0A94EAF7182B60E0802F0E941D
:100830000602219768F7812FDF91CF911F910F91C9
:10084000FF900895DF92EF92FF920F931F93CF9343
:10085000DF93EC018B810E94DD01892BD9F76A813E
:100860008B810E94FE03082F6A818B810E94FE0308
:10087000182F6A818B810E94FE03D82EE12CF12C67
:100880002C8130E0E216F30660F461E08A810E9478
:10089000060260E08A810E9406022FEFE21AF20A45
:1008A000EFCF812F90E0A0E0B0E0BA2FA92F982FD2
:1008B0008827A02BAC01BD014D29802F880F880B04
:1008C00090E0A0E0B0E0B82FAA27992788278A01F6
:1008D0009B01082B192B2A2B3B2BC901B801DF9157
:1008E000CF911F910F91FF90EF90DF9008950E949C
:1008F000E8070C9450070C9450071F920F920FB604
:100900000F9211242F933F938F939F93AF93BF9395
:100910008091390290913A02A0913B02B0913C0241
:100920003091380223E0230F2D3720F40196A11DCA
:10093000B11D05C026E8230F0296A11DB11D20930D
:1009400038028093390290933A02A0933B02B0930D
:100950003C028091340290913502A0913602B09110
:1009600037020196A11DB11D809334029093350288
:10097000A0933602B0933702BF91AF919F918F91B0
:100980003F912F910F900FBE0F901F9018951F92BF
:100990000F920FB60F9211240BB60F922F933F9325
:1009A0004F935F936F937F938F939F93AF93BF9377
:1009B000EF93FF938DE392E00E94E802FF91EF91A5
:1009C000BF91AF919F918F917F916F915F914F9167
:1009D0003F912F910F900BBE0F900FBE0F901F9065
:1009E00018951F920F920FB60F9211240BB60F920B
:1009F0002F938F939F93EF93FF93E0914D02F0918C
:100A00004E028081E0915302F091540282FD12C0A7
:100A10009081809156028F5F8F73209157028217C9
:100A200051F0E0915602F0E0E35CFD4F958F80932A
:100A3000560201C08081FF91EF919F918F912F917C
:100A40000F900BBE0F900FBE0F901F901895CF9375
:100A5000DF93EDE3F2E01382128288EE93E0A0E0F0
:100A6000B0E084839583A683B7838AE092E0918384
:100A7000808385EC90E09587848784EC90E097876D
:100A8000868780EC90E0918B808B81EC90E0938B5B
:100A9000828B82EC90E0958B848B86EC90E0978B38
:100AA000868B118E128E138E148ECAEDD2E08CE1DD
:100AB00092E0998388831D821E821F82188680E0BF
:100AC00090E0A0E8BFE389879A87AB87BC8782E084
:100AD0008A8383E08B8361E082E00E94360260E0DB
:100AE0008B810E94360281E08C8360E08A810E94C3
:100AF0000602CE010E94220484E292E09983888358
:100B000081E090E0A0E0B0E08E879F87A88BB98B52
:100B10001A8A1B8A1C8A1D8A8E8B9F8BA88FB98F7D
:100B200080E890E09C8F8B8F1D86DF91CF91089598
:100B3000789484B5826084BD84B5816084BD85B5B8
:100B4000826085BD85B5816085BD80916E008160C4
:100B500080936E001092810080918100826080936A
:100B6000810080918100816080938100809180006C
:100B70008160809380008091B10084608093B10097
:100B80008091B00081608093B0008091910082607C
:100B90008093910080919100816080939100809179
:100BA00090008160809390008091A100826080938A
:100BB000A1008091A10081608093A1008091A0009C
:100BC00081608093A0008091210182608093210147
:100BD00080912101816080932101809120018160B9
:100BE0008093200180917A00846080937A008091C4
:100BF0007A00826080937A0080917A00816080938D
:100C00007A0080917A00806880937A001092C10007
:100C100061E08DE00E94360261E084E00E943602CD
:100C2000E0914D02F0914E0282E08083E091490212
:100C3000F0914A021082E0914B02F0914C0280E167
:100C4000808310925502E0915102F091520286E0A9
:100C50008083E0914F02F091500280818061808317
:100C6000E0914F02F0915002808188608083E09192
:100C70004F02F0915002808180688083E0914F02A2
:100C8000F091500280818F7D80838AED92E00E94F6
:100C900022046B017C0160933002709331028093D7
:100CA0003202909333028AED92E00E9422048C017A
:100CB00022273327012B022B032B21F06FEF7FEF2D
:100CC00080E090E02091F902222361F0DC01CB0169
:100CD0000090F70204C0B695A795979587950A945A
:100CE000D2F701C0CB0190932F0280932E024AE0ED
:100CF000C701B6010E94BD0388E292E00E94AB03E7
:100D000060912E0270912F0280E090E04AE00E94F4
:100D1000BD038BE292E00E94AB030E947203B5CF49
:100D20000895A1E21A2EAA1BBB1BFD010DC0AA1F2C
:100D3000BB1FEE1FFF1FA217B307E407F50720F044
:100D4000A21BB30BE40BF50B661F771F881F991FBF
:100D50001A9469F760957095809590959B01AC0108
:100D6000BD01CF010895EE0FFF1F881F8BBF0790B5
:100D7000F691E02D1994CF93DF938230910510F412
:100D800082E090E0E091FC02F091FD0220E030E092
:100D9000C0E0D0E0309711F14081518148175907E8
:100DA000C0F04817590761F482819381209719F0A8
:100DB0009B838A832BC09093FD028093FC0226C004
:100DC0002115310519F04217530718F49A01BE0195
:100DD000DF01EF010280F381E02DDCCF2115310529
:100DE00009F1281B390B2430310590F412968D91AE
:100DF0009C9113976115710521F0FB019383828308
:100E000004C09093FD028093FC02FD01329644C021
:100E1000FD01E20FF31F81939193225031092D932D
:100E20003C933AC02091FA023091FB02232B41F40B
:100E300020910202309103023093FB022093FA02C8
:100E400020910002309101022115310541F42DB7A6
:100E50003EB74091040250910502241B350BE091EE
:100E6000FA02F091FB02E217F307A0F42E1B3F0BEE
:100E70002817390778F0AC014E5F5F4F241735070C
:100E800048F04E0F5F1F5093FB024093FA0281938C
:100E9000919302C0E0E0F0E0CF01DF91CF9108959F
:100EA0000F931F93CF93DF93009709F48CC0FC013D
:100EB0003297138212820091FC021091FD020115FB
:100EC000110581F420813181820F931F2091FA0254
:100ED0003091FB022817390779F5F093FB02E09374
:100EE000FA0271C0D80140E050E0AE17BF0750F4DD
:100EF00012962D913C911397AD012115310509F101
:100F0000D901F3CF9D01DA0133832283608171819E
:100F1000860F971F8217930769F4EC0128813981A6
:100F2000260F371F2E5F3F4F318320838A819B819D
:100F300093838283452B29F4F093FD02E093FC0216
:100F400042C01396FC93EE931297ED01499159918B
:100F50009E01240F351FE217F30771F48081918100
:100F6000840F951F029611969C938E938281938194
:100F700013969C938E931297E0E0F0E0D8011296BE
:100F80008D919C911397009719F0F8018C01F6CF81
:100F90008D919C9198012E5F3F4F820F931F20915E
:100FA000FA023091FB022817390769F4309729F4C7
:100FB0001092FD021092FC0202C013821282109362
:100FC000FB020093FA02DF91CF911F910F910895D8
:100FD00081E090E0F8940C94ED0711E0C1E5D1E0D8
:100FE00000E006C0802FFE010E94B3062196011D7D
:0E0FF000C235D10780E00807A9F7F894FFCFBB
:100FFE000000FE0280000000000009037202A10240
:10100E005003D202B002C402000000008501790430
:0E101E000000000086017B042C20000A000068
:00000001FF
