:100000000C9463000C948B000C948B000C948B006C
:100010000C948B000C948B000C948B000C948B0034
:100020000C948B000C948B000C948B000C948B0024
:100030000C948B000C948B000C948B000C948B0014
:100040000C9429030C948B000C9499030C94730367
:100050000C948B000C948B000C948B000C948B00F4
:100060000C948B000C948B000000000024002700EF
:100070002A0000000000250028002B0000000000DE
:1000800023002600290004040404040404040202DA
:100090000202020203030303030301020408102007
:1000A0004080010204081020010204081020000012
:1000B0000008000201000003040700000000000027
:1000C0000000CB03D30611241FBECFEFD8E0DEBF64
:1000D000CDBF11E0A0E0B1E0E0E3F5E102C00590A2
:1000E0000D92AE32B107D9F722E0AEE2B1E001C025
:1000F0001D92AF32B207E1F710E0C2E6D0E004C0D3
:100100002197FE010E945309C136D107C9F70E9409
:100110003C040C948B0A0C940000089508958330DD
:1001200081F028F4813099F08230A1F00895873071
:10013000A9F08830B9F08430D1F4809180008F7DAF
:1001400003C0809180008F7780938000089584B5EC
:100150008F7702C084B58F7D84BD08958091B000F3
:100160008F7703C08091B0008F7D8093B000089599
:10017000CF93DF93282F30E0F901E255FF4F8491B0
:10018000F901E656FF4FD491F901EA57FF4FC491A8
:10019000CC2391F081110E948F00EC2FF0E0EE0F44
:1001A000FF1FE458FF4FA591B491EC91ED2381E03E
:1001B00090E021F480E002C080E090E0DF91CF91F8
:1001C00008951F93CF93DF93282F30E0F901E25574
:1001D000FF4F8491F901E656FF4FD491F901EA5798
:1001E000FF4FC491CC23C9F0162F81110E948F00BC
:1001F000EC2FF0E0EE0FFF1FEE58FF4FA591B491EA
:100200008FB7F894111105C09C91ED2FE095E9236B
:1002100002C0EC91ED2BEC938FBFDF91CF911F913A
:100220000895CF93DF9390E0FC01E656FF4F2491B1
:10023000FC01EA57FF4F8491882361F190E0880F19
:10024000991FFC01E859FF4FC591D491FC01EE586C
:10025000FF4FA591B491611109C09FB7F8948881AF
:10026000209582238883EC912E230BC0623061F4A9
:100270009FB7F8943881822F809583238883EC91EF
:100280002E2B2C939FBF06C08FB7F894E8812E2B9E
:1002900028838FBFDF91CF910895CF92DF92EF92A5
:1002A000FF920F931F93CF93DF936C017A018B0121
:1002B000C0E0D0E0CE15DF0589F0D8016D918D0149
:1002C000D601ED91FC910190F081E02DC6010995D8
:1002D000892B11F47E0102C02196ECCFC701DF917A
:1002E000CF911F910F91FF90EF90DF90CF900895E5
:1002F000089580E090E00895FC01538D448D252FF2
:1003000030E0842F90E0821B930B541710F0CF96AF
:10031000089501970895FC01918D828D981761F0E1
:10032000828DDF01A80FB11D5D968C91928D9F5F2C
:100330009F73928F90E008958FEF9FEF0895FC01D7
:10034000918D828D981731F0828DE80FF11D858D8A
:1003500090E008958FEF9FEF0895FC01918D228D1D
:10036000892F90E0805C9F4F821B91098F739927A2
:1003700008958EE691E00E94AD0121E0892B09F4F9
:1003800020E0822F0895FC01848DDF01A80FB11DAC
:10039000A35ABF4F2C91848D90E001968F739927BB
:1003A000848FA689B7892C93A089B1898C918064A8
:1003B0008C93938D848D981306C00288F389E02D69
:1003C00080818F7D80830895EF92FF920F931F931A
:1003D000CF93DF93EC0181E0888F9B8D8C8D9813F8
:1003E00005C0E889F989808185FD24C0F62E0B8D32
:1003F00010E00F5F1F4F0F731127E02E8C8DE81256
:100400000CC00FB607FCFACFE889F989808185FF17
:10041000F5CFCE010E94C301F1CF8B8DFE01E80F15
:10042000F11DE35AFF4FF0820B8FEA89FB8980812F
:10043000806207C0EE89FF896083E889F98980813D
:100440008064808381E090E0DF91CF911F910F91D4
:10045000FF90EF900895CF93DF93EC01888D882370
:10046000C9F0EA89FB89808185FD05C0A889B98921
:100470008C9186FD0FC00FB607FCF5CF808185FFFC
:10048000F2CFA889B9898C9185FFEDCFCE010E946A
:10049000C301E7CFDF91CF91089580E090E0892BF1
:1004A00029F00E94B90181110C9400000895FF9277
:1004B0000F931F93CF93DF93F82E062FC7E0D0E062
:1004C00010E061E0802F0E94E1008F2D0E94B800B3
:1004D0000C2E01C0880F0A94EAF7182B60E0802FD9
:1004E0000E94E100219768F7812FDF91CF911F9142
:1004F0000F91FF900895DF92EF92FF920F931F9359
:10050000CF93DF93EC018B810E94B800892BD9F740
:100510006A818B810E945702082F6A818B810E9419
:100520005702182F6A818B810E945702D82EE12C26
:10053000F12C2C8130E0E216F30660F461E08A8150
:100540000E94E10060E08A810E94E1002FEFE21A40
:10055000F20AEFCF812F90E0A0E0B0E0BA2FA92FF0
:10056000982F8827A02BAC01BD014D29802F880F23
:10057000880B90E0A0E0B0E0B82FAA279927882741
:100580008A019B01082B192B2A2B3B2BC901B8018F
:10059000DF91CF911F910F91FF90EF90DF90089521
:1005A000009769F0FC0101900020E9F73197AF0155
:1005B000481B590BBC018EE691E00C944D0180E084
:1005C00090E008958F929F92AF92BF920F931F93E6
:1005D000CF93DF93CDB7DEB7A1970FB6F894DEBF08
:1005E0000FBECDBF19A2423008F44AE08E010F5D64
:1005F0001F4F842E912CA12CB12CA50194010E9497
:100600001209E62FB901CA0101501109EA3014F4A8
:10061000E05D01C0E95CD801EC93232B242B252B52
:1006200061F7C8010E94D002A1960FB6F894DEBF10
:100630000FBECDBFDF91CF911F910F91BF90AF90B3
:100640009F908F9008950E94860A0C94EE090C9456
:10065000EE091F920F920FB60F9211242F933F9322
:100660008F939F93AF93BF9380916A0190916B0199
:10067000A0916C01B0916D013091690123E0230FCD
:100680002D3720F40196A11DB11D05C026E8230FCA
:100690000296A11DB11D2093690180936A01909378
:1006A0006B01A0936C01B0936D01809165019091F5
:1006B0006601A0916701B09168010196A11DB11D6D
:1006C0008093650190936601A0936701B0936801E0
:1006D000BF91AF919F918F913F912F910F900FBE3E
:1006E0000F901F9018951F920F920FB60F92112422
:1006F0002F933F934F935F936F937F938F939F932A
:10070000AF93BF93EF93FF938EE691E00E94C301F6
:10071000FF91EF91BF91AF919F918F917F916F91D9
:100720005F914F913F912F910F900FBE0F901F90AF
:1007300018951F920F920FB60F9211242F938F933B
:100740009F93EF93FF93E0917E01F0917F01808171
:10075000E0918401F091850182FD12C09081809129
:1007600087018F5F8F7320918801821751F0E0918C
:100770008701F0E0E259FE4F958F8093870101C019
:100780008081FF91EF919F918F912F910F900FBEDC
:100790000F901F901895CF93DF93EEE6F1E0138250
:1007A000128288EE93E0A0E0B0E084839583A68374
:1007B000B7838AE091E09183808385EC90E0958710
:1007C000848784EC90E09787868780EC90E0918B1B
:1007D000808B81EC90E0938B828B82EC90E0958B08
:1007E000848B86EC90E0978B868B118E128E138E05
:1007F000148ECBE0D2E08CE191E0998388831D8256
:100800001E821F82188680E090E0A0E8BFE38987FF
:100810009A87AB87BC8782E08A8383E08B8361E021
:1008200082E00E94110160E08B810E94110181E051
:100830008C8360E08A810E94E100CE010E947B02ED
:1008400084E291E09983888381E090E0A0E0B0E0C9
:100850008E879F87A88BB98B1A8A1B8A1C8A1D8A50
:100860008E8B9F8BA88FB98F80E890E09C8F8B8FA9
:100870001D86DF91CF910895789484B5826084BD00
:1008800084B5816084BD85B5826085BD85B5816094
:1008900085BD80916E00816080936E001092810012
:1008A00080918100826080938100809181008160CD
:1008B000809381008091800081608093800080918E
:1008C000B10084608093B1008091B000816080931A
:1008D000B00080917A00846080937A0080917A00E1
:1008E000826080937A0080917A00816080937A00A0
:1008F00080917A00806880937A001092C10061E054
:100900008DE00E94110161E084E00E941101E091FC
:100910007E01F0917F0182E08083E0917A01F09185
:100920007B011082E0917C01F0917D0180E1808368
:1009300010928601E0918201F091830186E080832C
:10094000E0918001F0918101808180618083E0915C
:100950008001F0918101808188608083E091800135
:10096000F0918101808180688083E0918001F09125
:10097000810180818F7D808380E090E0AAE7B4ECE4
:100980008093140290931502A0931602B09317025D
:10099000CAE0C12CD12C76018BE092E00E947B0250
:1009A000C60ED71EE81EF91EC150B1F7C701B60129
:1009B0002AE030E040E050E00E943409CA01B90169
:1009C0000E94F0070E94B807609310027093110212
:1009D00080931202909313022AE0422E512C612C34
:1009E000712C332433948090610190906201A09027
:1009F0006301B090640180925D0190925E01A092CB
:100A00005F01B0926001CAE0C12CD12C76018BE06D
:100A100092E00E947B02C60ED71EE81EF91EC1504E
:100A2000B1F7C701B601A30192010E943409809178
:100A3000100290911102A0911202B091130279015B
:100A40008A01E81AF90A0A0B1B0BC801B7010E94B8
:100A5000F007209114023091150240911602509136
:100A600017020E94460760936101709362018093B0
:100A7000630190936401C0905901D0905A01E090B5
:100A80005B01F0905C01C0925501D0925601E0925A
:100A90005701F0925801A50194010E94D4068B01E0
:100AA000D82FC92FCB01AD2FBC2F80935901909324
:100AB0005A01A0935B01B0935C0198014D2F5C2F0C
:100AC000B8018D2F9C2F0E94A5084B015C016093FB
:100AD000510170935201809353019093540180917E
:100AE0004D0190914E01A0914F01B0915001809322
:100AF000490190934A01A0934B01B0934C0120E02F
:100B000030E0A901B8018D2F9C2F0E94410787FF7B
:100B100004C0B02FA12FFE0104C0B0E0A0E0F0E0BF
:100B2000E0E04B2F5A2F6F2F7E2F40934D015093B3
:100B30004E0160934F01709350012B2F3A2F4F2F8E
:100B40005E2F6B2F7A2F8F2F9E2F0E94A508609308
:100B50004501709346018093470190934801A70196
:100B60009601B8018D2F9C2F0E94D4066B017C0149
:100B7000609341017093420180934301909344013B
:100B80009B01AC010E94A50860933D0170933E015A
:100B900080933F019093400120E030E0A901C7011C
:100BA000B6010E94410787FD03C0C12CD12C7601FC
:100BB000C0923901D0923A01E0923B01F0923C019F
:100BC000A7019601C701B6010E94A50860933501EF
:100BD00070933601809337019093380180913401EE
:100BE000811123C020E030E040EC5FE3C501B40197
:100BF0000E94A00818160CF061C020E030E0A901A6
:100C0000B8018D2F9C2F0E94A00818160CF056C01A
:100C1000309234013092330180922F019092300152
:100C2000A0923101B092320149C02DEC3CEC4CEC69
:100C30005DE3B8018D2F9C2F0E94A00887FD05C0A1
:100C40008091330181111BC00FC02DEC3CEC4CECAA
:100C50005DEBB8018D2F9C2F0E9441071816D4F030
:100C6000809133018823B1F01092340110922F014A
:100C70001092300110923101109232011FC02DEC00
:100C80003CEC4CEC5DEBB8018D2F9C2F0E94410792
:100C9000181654F7A501940160912F01709130014D
:100CA00080913101909132010E94D50660932F010D
:100CB000709330018093310190933201C1E020E0C4
:100CC00030E048EC51E460912F0170913001809147
:100CD0003101909132010E94A00818160CF0C0E07A
:100CE000C0932E018BE092E00E947B024B015C01DD
:100CF0008BE092E00E947B0200911D0210911E0287
:100D000020911F0230912002061717072807390784
:100D100038F46B017C01C01AD10AE20AF30A03C05D
:100D2000C12CD12C760180912A02882349F00090B1
:100D3000280204C0F694E794D794C7940A94D2F793
:100D4000C701AA27BB27892B8A2B8B2B29F0CC2400
:100D5000CA94DC2CE12CF12C4AE0C501B4010E94BC
:100D6000E20288E291E00E94D0024AE0C701B601A7
:100D70000E94E2028BE291E00E94D00280912E015B
:100D8000882331F060E084E00E94E10061E005C06A
:100D900061E084E00E94E10060E08DE00E94E100FB
:100DA0000E944D0220CE08955058BB27AA270E94CA
:100DB000EC060C9466080E94580838F00E945F0800
:100DC00020F039F49F3F19F426F40C9455080EF4E2
:100DD000E095E7FB0C944F08E92F0E94770858F341
:100DE000BA17620773078407950720F079F4A6F510
:100DF0000C9499080EF4E0950B2EBA2FA02D0B0140
:100E0000B90190010C01CA01A0011124FF27591B4F
:100E100099F0593F50F4503E68F11A16F040A22F55
:100E2000232F342F4427585FF3CF469537952795C6
:100E3000A795F0405395C9F77EF41F16BA0B620BC5
:100E4000730B840BBAF09150A1F0FF0FBB1F661F0C
:100E5000771F881FC2F70EC0BA0F621F731F841F4F
:100E600048F4879577956795B795F7959E3F08F075
:100E7000B0CF9395880F08F09927EE0F9795879537
:100E800008950E942B0808F481E008950E945A07F3
:100E90000C9466080E945F0858F00E94580840F0C1
:100EA00029F45F3F29F00C944F0851110C949A08D3
:100EB0000C9455080E94770868F39923B1F35523E1
:100EC00091F3951B550BBB27AA276217730784075D
:100ED00038F09F5F5F4F220F331F441FAA1FA9F3F3
:100EE00035D00E2E3AF0E0E832D091505040E695E1
:100EF000001CCAF72BD0FE2F29D0660F771F881F42
:100F0000BB1F261737074807AB07B0E809F0BB0B34
:100F1000802DBF01FF2793585F4F3AF09E3F510548
:100F200078F00C944F080C949A085F3FE4F3983ED5
:100F3000D4F3869577956795B795F7959F5FC9F731
:100F4000880F911D9695879597F90895E1E0660FB2
:100F5000771F881FBB1F621773078407BA0720F02B
:100F6000621B730B840BBA0BEE1F88F7E095089594
:100F70000E94BF076894B1110C949A0808950E94CA
:100F80007F0888F09F5798F0B92F9927B751B0F094
:100F9000E1F0660F771F881F991F1AF0BA95C9F7FD
:100FA00014C0B13091F00E949908B1E008950C94FA
:100FB0009908672F782F8827B85F39F0B93FCCF3AD
:100FC000869577956795B395D9F73EF4909580957A
:100FD000709561957F4F8F4F9F4F0895E89409C09A
:100FE00097FB3EF490958095709561957F4F8F4F5C
:100FF0009F4F9923A9F0F92F96E9BB279395F69572
:10100000879577956795B795F111F8CFFAF4BB0FEF
:1010100011F460FF1BC06F5F7F4F8F4F9F4F16C053
:10102000882311F096E911C0772321F09EE8872FDD
:10103000762F05C0662371F096E8862F70E060E099
:101040002AF09A95660F771F881FDAF7880F969512
:10105000879597F90895990F0008550FAA0BE0E8B6
:10106000FEEF16161706E807F907C0F0121613066A
:10107000E407F50798F0621B730B840B950B39F4AA
:101080000A2661F0232B242B252B21F408950A2610
:1010900009F4A140A6958FEF811D811D089597F950
:1010A0009F6780E870E060E008959FEF80EC08950E
:1010B00000240A9416161706180609060895002437
:1010C0000A9412161306140605060895092E0394B1
:1010D000000C11F4882352F0BB0F40F4BF2B11F425
:1010E00060FF04C06F5F7F4F8F4F9F4F089557FD84
:1010F0009058440F551F59F05F3F71F04795880F86
:1011000097FB991F61F09F3F79F08795089512161C
:1011100013061406551FF2CF4695F1DF08C01616C8
:1011200017061806991FF1CF869571056105089479
:101130000895E894BB2766277727CB0197F9089590
:101140000E942B0808F48FEF08950E94B8080C94B1
:1011500066080E94580838F00E945F0820F0952326
:1011600011F00C944F080C94550811240C949A0813
:101170000E94770870F3959FC1F3950F50E0551FBB
:10118000629FF001729FBB27F00DB11D639FAA27DC
:10119000F00DB11DAA1F649F6627B00DA11D661F2B
:1011A000829F2227B00DA11D621F739FB00DA11D4C
:1011B000621F839FA00D611D221F749F3327A00D06
:1011C000611D231F849F600D211D822F762F6A2FA2
:1011D00011249F5750409AF0F1F088234AF0EE0F07
:1011E000FF1FBB1F661F771F881F91505040A9F734
:1011F0009E3F510580F00C944F080C949A085F3F75
:10120000E4F3983ED4F3869577956795B795F7956F
:10121000E7959F5FC1F7FE2B880F911D96958795E7
:1012200097F90895A1E21A2EAA1BBB1BFD010DC060
:10123000AA1FBB1FEE1FFF1FA217B307E407F50786
:1012400020F0A21BB30BE40BF50B661F771F881F62
:10125000991F1A9469F760957095809590959B01F8
:10126000AC01BD01CF010895052E97FB1EF400943B
:101270000E944B0957FD07D00E94120907FC03D0BA
:101280004EF40C944B0950954095309521953F4F65
:101290004F4F5F4F089590958095709561957F4F62
:1012A0008F4F9F4F0895EE0FFF1F0590F491E02D93
:1012B0000994CF93DF938230910510F482E090E09F
:1012C000E0912D02F0912E0220E030E0C0E0D0E06D
:1012D000309711F14081518148175907C0F04817E4
:1012E000590761F482819381209719F09B838A8347
:1012F0002BC090932E0280932D0226C0211531051C
:1013000019F04217530718F49A01BE01DF01EF01EB
:101310000280F381E02DDCCF2115310509F1281B76
:10132000390B2430310590F412968D919C911397CE
:101330006115710521F0FB019383828304C09093B2
:101340002E0280932D02FD01329644C0FD01E20F72
:10135000F31F81939193225031092D933C933AC00E
:1013600020912B0230912C02232B41F42091020179
:101370003091030130932C0220932B022091000125
:10138000309101012115310541F42DB73EB740914F
:10139000040150910501241B350BE0912B02F091C3
:1013A0002C02E217F307A0F42E1B3F0B2817390776
:1013B00078F0AC014E5F5F4F2417350748F04E0FB1
:1013C0005F1F50932C0240932B028193919302C094
:1013D000E0E0F0E0CF01DF91CF9108950F931F93EC
:1013E000CF93DF93009709F48CC0FC0132971382EE
:1013F000128200912D0210912E020115110581F427
:1014000020813181820F931F20912B0230912C0279
:101410002817390779F5F0932C02E0932B0271C05D
:10142000D80140E050E0AE17BF0750F412962D915E
:101430003C911397AD012115310509F1D901F3CF85
:101440009D01DA013383228360817181860F971FAA
:101450008217930769F4EC0128813981260F371F21
:101460002E5F3F4F318320838A819B8193838283C8
:10147000452B29F4F0932E02E0932D0242C01396DF
:10148000FC93EE931297ED01499159919E01240F1F
:10149000351FE217F30771F480819181840F951F46
:1014A000029611969C938E938281938113969C93BE
:1014B0008E931297E0E0F0E0D80112968D919C9106
:1014C0001397009719F0F8018C01F6CF8D919C913C
:1014D00098012E5F3F4F820F931F20912B02309176
:1014E0002C022817390769F4309729F410922E023C
:1014F00010922D0202C01382128210932C020093CC
:101500002B02DF91CF911F910F91089581E090E020
:10151000F8940C948B0A10E0C2E6D0E004C0FE01FF
:101520000E9453092196C336D107C9F7F894FFCF1B
:1015300000002F02800000000000E4014D017C014A
:101540002B02AD018B019F01000000008D002703DD
:0E155000000000008E0025032C20000A000081
:00000001FF
